:020000002100DD
:1001000012010E12013112015412017B80F27B05A3
:1001100075800075900075A00075B0001201CB7558
:1001200090FF75A0FF75B0FF7580FF1201CBDBE07B
:10013000227B0575800075900075A0FF75B0FF12D9
:1001400001CB7580FF7590FF75A00075B00012019E
:10015000CBDBE0227B057590AA75A05575B0AA751A
:10016000805574001201CB75905575A0AA75B055D5
:100170007580AA74001201CBDBDC227B027590FF34
:1001800075A0FF75B0FF7580FF1201D97590FF75DE
:10019000B0FF75A0FF7580001201D975A0FF7580B2
:1001A000FF75B0FF7590001201D975B0FF7580FF23
:1001B0007590FF75A0001201D975A0FF7580FF75BD
:1001C00090FF75B0001201D9DBB32279FF7AFF00EE
:1001D00000000000DAF9D9F52279FF7AFF0000006B
:0901E00000000000DAF7D9F32257
:00000001FF
